{"abi":[{"type":"constructor","inputs":[{"name":"anEntryPoint","type":"address","internalType":"contract IEntryPoint"}],"stateMutability":"nonpayable"},{"type":"function","name":"entryPoint","inputs":[],"outputs":[{"name":"","type":"address","internalType":"contract IEntryPoint"}],"stateMutability":"view"},{"type":"function","name":"execute","inputs":[{"name":"dest","type":"address","internalType":"address"},{"name":"value","type":"uint256","internalType":"uint256"},{"name":"func","type":"bytes","internalType":"bytes"}],"outputs":[],"stateMutability":"nonpayable"},{"type":"function","name":"executeUserOp","inputs":[{"name":"userOp","type":"tuple","internalType":"struct PackedUserOperation","components":[{"name":"sender","type":"address","internalType":"address"},{"name":"nonce","type":"uint256","internalType":"uint256"},{"name":"initCode","type":"bytes","internalType":"bytes"},{"name":"callData","type":"bytes","internalType":"bytes"},{"name":"accountGasLimits","type":"bytes32","internalType":"bytes32"},{"name":"preVerificationGas","type":"uint256","internalType":"uint256"},{"name":"gasFees","type":"bytes32","internalType":"bytes32"},{"name":"paymasterAndData","type":"bytes","internalType":"bytes"},{"name":"signature","type":"bytes","internalType":"bytes"}]},{"name":"userOpHash","type":"bytes32","internalType":"bytes32"}],"outputs":[],"stateMutability":"nonpayable"},{"type":"function","name":"owner","inputs":[],"outputs":[{"name":"","type":"address","internalType":"address"}],"stateMutability":"view"},{"type":"function","name":"validateUserOp","inputs":[{"name":"userOp","type":"tuple","internalType":"struct PackedUserOperation","components":[{"name":"sender","type":"address","internalType":"address"},{"name":"nonce","type":"uint256","internalType":"uint256"},{"name":"initCode","type":"bytes","internalType":"bytes"},{"name":"callData","type":"bytes","internalType":"bytes"},{"name":"accountGasLimits","type":"bytes32","internalType":"bytes32"},{"name":"preVerificationGas","type":"uint256","internalType":"uint256"},{"name":"gasFees","type":"bytes32","internalType":"bytes32"},{"name":"paymasterAndData","type":"bytes","internalType":"bytes"},{"name":"signature","type":"bytes","internalType":"bytes"}]},{"name":"userOpHash","type":"bytes32","internalType":"bytes32"},{"name":"missingAccountFunds","type":"uint256","internalType":"uint256"}],"outputs":[{"name":"validationData","type":"uint256","internalType":"uint256"}],"stateMutability":"view"},{"type":"error","name":"ECDSAInvalidSignature","inputs":[]},{"type":"error","name":"ECDSAInvalidSignatureLength","inputs":[{"name":"length","type":"uint256","internalType":"uint256"}]},{"type":"error","name":"ECDSAInvalidSignatureS","inputs":[{"name":"s","type":"bytes32","internalType":"bytes32"}]}],"bytecode":{"object":"0x60c0604052348015600f57600080fd5b50604051610965380380610965833981016040819052602c91603c565b6001600160a01b031660a052606a565b600060208284031215604d57600080fd5b81516001600160a01b0381168114606357600080fd5b9392505050565b60805160a0516108b56100b06000396000818160d801528181610160015261021a01526000818160870152818161012e015281816101e8015261031c01526108b56000f3fe608060405234801561001057600080fd5b50600436106100575760003560e01c806319822f7c1461005c5780638da5cb5b146100825780638dd7712f146100c1578063b0d691fe146100d6578063b61d27f6146100fc575b600080fd5b61006f61006a366004610692565b61010f565b6040519081526020015b60405180910390f35b6100a97f000000000000000000000000000000000000000000000000000000000000000081565b6040516001600160a01b039091168152602001610079565b6100d46100cf3660046106e0565b610123565b005b7f00000000000000000000000000000000000000000000000000000000000000006100a9565b6100d461010a366004610725565b6101dd565b600061011b8484610296565b949350505050565b336001600160a01b037f00000000000000000000000000000000000000000000000000000000000000001614806101825750336001600160a01b037f000000000000000000000000000000000000000000000000000000000000000016145b6101cf5760405162461bcd60e51b81526020600482015260196024820152781bdb9b1e481bdddb995c881bdc88195b9d1c9e481c1bda5b9d603a1b60448201526064015b60405180910390fd5b6101d9828261035f565b5050565b336001600160a01b037f000000000000000000000000000000000000000000000000000000000000000016148061023c5750336001600160a01b037f000000000000000000000000000000000000000000000000000000000000000016145b6102845760405162461bcd60e51b81526020600482015260196024820152781bdb9b1e481bdddb995c881bdc88195b9d1c9e481c1bda5b9d603a1b60448201526064016101c6565b610290848484846103ec565b50505050565b7f19457468657265756d205369676e6564204d6573736167653a0a3332000000006000908152601c829052603c8120610311816102d76101008701876107bd565b8080601f01602080910402602001604051908101604052809392919081815260200183838082843760009201919091525061047a92505050565b6001600160a01b03167f00000000000000000000000000000000000000000000000000000000000000006001600160a01b031614610353576001915050610359565b60009150505b92915050565b6000803061037060608601866107bd565b60405161037e92919061080b565b6000604051808303816000865af19150503d80600081146103bb576040519150601f19603f3d011682016040523d82523d6000602084013e6103c0565b606091505b50915091508181906103e55760405162461bcd60e51b81526004016101c6919061081b565b5050505050565b600080856001600160a01b031685858560405161040a92919061080b565b60006040518083038185875af1925050503d8060008114610447576040519150601f19603f3d011682016040523d82523d6000602084013e61044c565b606091505b50915091508181906104715760405162461bcd60e51b81526004016101c6919061081b565b50505050505050565b60008060008061048a86866104a4565b92509250925061049a82826104f1565b5090949350505050565b600080600083516041036104de5760208401516040850151606086015160001a6104d0888285856105aa565b9550955095505050506104ea565b50508151600091506002905b9250925092565b600082600381111561050557610505610869565b0361050e575050565b600182600381111561052257610522610869565b036105405760405163f645eedf60e01b815260040160405180910390fd5b600282600381111561055457610554610869565b036105755760405163fce698f760e01b8152600481018290526024016101c6565b600382600381111561058957610589610869565b036101d9576040516335e2f38360e21b8152600481018290526024016101c6565b600080807f7fffffffffffffffffffffffffffffff5d576e7357a4501ddfe92f46681b20a08411156105e5575060009150600390508261066f565b604080516000808252602082018084528a905260ff891692820192909252606081018790526080810186905260019060a0016020604051602081039080840390855afa158015610639573d6000803e3d6000fd5b5050604051601f1901519150506001600160a01b0381166106655750600092506001915082905061066f565b9250600091508190505b9450945094915050565b6000610120828403121561068c57600080fd5b50919050565b6000806000606084860312156106a757600080fd5b833567ffffffffffffffff8111156106be57600080fd5b6106ca86828701610679565b9660208601359650604090950135949350505050565b600080604083850312156106f357600080fd5b823567ffffffffffffffff81111561070a57600080fd5b61071685828601610679565b95602094909401359450505050565b6000806000806060858703121561073b57600080fd5b84356001600160a01b038116811461075257600080fd5b935060208501359250604085013567ffffffffffffffff81111561077557600080fd5b8501601f8101871361078657600080fd5b803567ffffffffffffffff81111561079d57600080fd5b8760208284010111156107af57600080fd5b949793965060200194505050565b6000808335601e198436030181126107d457600080fd5b83018035915067ffffffffffffffff8211156107ef57600080fd5b60200191503681900382131561080457600080fd5b9250929050565b8183823760009101908152919050565b602081526000825180602084015260005b81811015610849576020818601810151604086840101520161082c565b506000604082850101526040601f19601f83011684010191505092915050565b634e487b7160e01b600052602160045260246000fdfea264697066735822122074fa500afd4b4578fd2b3b775289f3072d89b922d85bcf219eb7f5398e29ea4c64736f6c634300081a0033","linkReferences":{}},"methodIdentifiers":{"entryPoint()":"b0d691fe","execute(address,uint256,bytes)":"b61d27f6","executeUserOp((address,uint256,bytes,bytes,bytes32,uint256,bytes32,bytes,bytes),bytes32)":"8dd7712f","owner()":"8da5cb5b","validateUserOp((address,uint256,bytes,bytes,bytes32,uint256,bytes32,bytes,bytes),bytes32,uint256)":"19822f7c"},"id":15}